{
  "_format": "hh-sol-artifact-1",
  "contractName": "Exchange",
  "sourceName": "contracts/Exchange.sol",
  "abi": [
    {
      "inputs": [
        {
          "internalType": "address",
          "name": "_token",
          "type": "address"
        }
      ],
      "stateMutability": "nonpayable",
      "type": "constructor"
    },
    {
      "anonymous": false,
      "inputs": [
        {
          "indexed": true,
          "internalType": "address",
          "name": "owner",
          "type": "address"
        },
        {
          "indexed": true,
          "internalType": "address",
          "name": "spender",
          "type": "address"
        },
        {
          "indexed": false,
          "internalType": "uint256",
          "name": "value",
          "type": "uint256"
        }
      ],
      "name": "Approval",
      "type": "event"
    },
    {
      "anonymous": false,
      "inputs": [
        {
          "indexed": true,
          "internalType": "address",
          "name": "liquidityProvider",
          "type": "address"
        },
        {
          "indexed": true,
          "internalType": "uint256",
          "name": "sharesBurned",
          "type": "uint256"
        }
      ],
      "name": "Divestment",
      "type": "event"
    },
    {
      "anonymous": false,
      "inputs": [
        {
          "indexed": true,
          "internalType": "address",
          "name": "buyer",
          "type": "address"
        },
        {
          "indexed": true,
          "internalType": "uint256",
          "name": "ethIn",
          "type": "uint256"
        },
        {
          "indexed": true,
          "internalType": "uint256",
          "name": "tokensOut",
          "type": "uint256"
        }
      ],
      "name": "EthToTokenPurchase",
      "type": "event"
    },
    {
      "anonymous": false,
      "inputs": [
        {
          "indexed": true,
          "internalType": "address",
          "name": "liquidityProvider",
          "type": "address"
        },
        {
          "indexed": true,
          "internalType": "uint256",
          "name": "sharesPurchased",
          "type": "uint256"
        }
      ],
      "name": "Investment",
      "type": "event"
    },
    {
      "anonymous": false,
      "inputs": [
        {
          "indexed": true,
          "internalType": "address",
          "name": "buyer",
          "type": "address"
        },
        {
          "indexed": true,
          "internalType": "uint256",
          "name": "tokensIn",
          "type": "uint256"
        },
        {
          "indexed": true,
          "internalType": "uint256",
          "name": "ethOut",
          "type": "uint256"
        }
      ],
      "name": "TokenToEthPurchase",
      "type": "event"
    },
    {
      "anonymous": false,
      "inputs": [
        {
          "indexed": true,
          "internalType": "address",
          "name": "buyer",
          "type": "address"
        },
        {
          "indexed": true,
          "internalType": "address",
          "name": "tokenIn",
          "type": "address"
        },
        {
          "indexed": false,
          "internalType": "uint256",
          "name": "tokensIn",
          "type": "uint256"
        },
        {
          "indexed": true,
          "internalType": "address",
          "name": "tokenOut",
          "type": "address"
        }
      ],
      "name": "TokenToTokenPurchase",
      "type": "event"
    },
    {
      "anonymous": false,
      "inputs": [
        {
          "indexed": true,
          "internalType": "address",
          "name": "from",
          "type": "address"
        },
        {
          "indexed": true,
          "internalType": "address",
          "name": "to",
          "type": "address"
        },
        {
          "indexed": false,
          "internalType": "uint256",
          "name": "value",
          "type": "uint256"
        }
      ],
      "name": "Transfer",
      "type": "event"
    },
    {
      "inputs": [
        {
          "internalType": "uint256",
          "name": "_tokenAmount",
          "type": "uint256"
        }
      ],
      "name": "addLiquidity",
      "outputs": [
        {
          "internalType": "uint256",
          "name": "",
          "type": "uint256"
        }
      ],
      "stateMutability": "payable",
      "type": "function"
    },
    {
      "inputs": [
        {
          "internalType": "address",
          "name": "owner",
          "type": "address"
        },
        {
          "internalType": "address",
          "name": "spender",
          "type": "address"
        }
      ],
      "name": "allowance",
      "outputs": [
        {
          "internalType": "uint256",
          "name": "",
          "type": "uint256"
        }
      ],
      "stateMutability": "view",
      "type": "function"
    },
    {
      "inputs": [
        {
          "internalType": "address",
          "name": "spender",
          "type": "address"
        },
        {
          "internalType": "uint256",
          "name": "amount",
          "type": "uint256"
        }
      ],
      "name": "approve",
      "outputs": [
        {
          "internalType": "bool",
          "name": "",
          "type": "bool"
        }
      ],
      "stateMutability": "nonpayable",
      "type": "function"
    },
    {
      "inputs": [
        {
          "internalType": "address",
          "name": "account",
          "type": "address"
        }
      ],
      "name": "balanceOf",
      "outputs": [
        {
          "internalType": "uint256",
          "name": "",
          "type": "uint256"
        }
      ],
      "stateMutability": "view",
      "type": "function"
    },
    {
      "inputs": [],
      "name": "decimals",
      "outputs": [
        {
          "internalType": "uint8",
          "name": "",
          "type": "uint8"
        }
      ],
      "stateMutability": "view",
      "type": "function"
    },
    {
      "inputs": [
        {
          "internalType": "address",
          "name": "spender",
          "type": "address"
        },
        {
          "internalType": "uint256",
          "name": "subtractedValue",
          "type": "uint256"
        }
      ],
      "name": "decreaseAllowance",
      "outputs": [
        {
          "internalType": "bool",
          "name": "",
          "type": "bool"
        }
      ],
      "stateMutability": "nonpayable",
      "type": "function"
    },
    {
      "inputs": [
        {
          "internalType": "uint256",
          "name": "_minTokens",
          "type": "uint256"
        }
      ],
      "name": "ethToTokenSwap",
      "outputs": [],
      "stateMutability": "payable",
      "type": "function"
    },
    {
      "inputs": [
        {
          "internalType": "uint256",
          "name": "_minTokens",
          "type": "uint256"
        },
        {
          "internalType": "address",
          "name": "_recipient",
          "type": "address"
        }
      ],
      "name": "ethToTokenTransfer",
      "outputs": [],
      "stateMutability": "payable",
      "type": "function"
    },
    {
      "inputs": [],
      "name": "factoryAddress",
      "outputs": [
        {
          "internalType": "address",
          "name": "",
          "type": "address"
        }
      ],
      "stateMutability": "view",
      "type": "function"
    },
    {
      "inputs": [
        {
          "internalType": "uint256",
          "name": "_tokenSold",
          "type": "uint256"
        }
      ],
      "name": "getEthAmount",
      "outputs": [
        {
          "internalType": "uint256",
          "name": "",
          "type": "uint256"
        }
      ],
      "stateMutability": "view",
      "type": "function"
    },
    {
      "inputs": [],
      "name": "getReserve",
      "outputs": [
        {
          "internalType": "uint256",
          "name": "",
          "type": "uint256"
        }
      ],
      "stateMutability": "view",
      "type": "function"
    },
    {
      "inputs": [
        {
          "internalType": "uint256",
          "name": "_ethSold",
          "type": "uint256"
        }
      ],
      "name": "getTokenAmount",
      "outputs": [
        {
          "internalType": "uint256",
          "name": "",
          "type": "uint256"
        }
      ],
      "stateMutability": "view",
      "type": "function"
    },
    {
      "inputs": [
        {
          "internalType": "address",
          "name": "spender",
          "type": "address"
        },
        {
          "internalType": "uint256",
          "name": "addedValue",
          "type": "uint256"
        }
      ],
      "name": "increaseAllowance",
      "outputs": [
        {
          "internalType": "bool",
          "name": "",
          "type": "bool"
        }
      ],
      "stateMutability": "nonpayable",
      "type": "function"
    },
    {
      "inputs": [],
      "name": "name",
      "outputs": [
        {
          "internalType": "string",
          "name": "",
          "type": "string"
        }
      ],
      "stateMutability": "view",
      "type": "function"
    },
    {
      "inputs": [
        {
          "internalType": "uint256",
          "name": "_amount",
          "type": "uint256"
        }
      ],
      "name": "removeLiquidity",
      "outputs": [
        {
          "internalType": "uint256",
          "name": "",
          "type": "uint256"
        },
        {
          "internalType": "uint256",
          "name": "",
          "type": "uint256"
        }
      ],
      "stateMutability": "nonpayable",
      "type": "function"
    },
    {
      "inputs": [
        {
          "internalType": "address",
          "name": "",
          "type": "address"
        }
      ],
      "name": "shares",
      "outputs": [
        {
          "internalType": "uint256",
          "name": "",
          "type": "uint256"
        }
      ],
      "stateMutability": "view",
      "type": "function"
    },
    {
      "inputs": [],
      "name": "symbol",
      "outputs": [
        {
          "internalType": "string",
          "name": "",
          "type": "string"
        }
      ],
      "stateMutability": "view",
      "type": "function"
    },
    {
      "inputs": [],
      "name": "tokenAddress",
      "outputs": [
        {
          "internalType": "address",
          "name": "",
          "type": "address"
        }
      ],
      "stateMutability": "view",
      "type": "function"
    },
    {
      "inputs": [
        {
          "internalType": "uint256",
          "name": "_tokensSold",
          "type": "uint256"
        },
        {
          "internalType": "uint256",
          "name": "_minEth",
          "type": "uint256"
        }
      ],
      "name": "tokenToEthSwap",
      "outputs": [],
      "stateMutability": "nonpayable",
      "type": "function"
    },
    {
      "inputs": [
        {
          "internalType": "uint256",
          "name": "_tokensSold",
          "type": "uint256"
        },
        {
          "internalType": "uint256",
          "name": "_minTokensBought",
          "type": "uint256"
        },
        {
          "internalType": "address",
          "name": "_tokenAddress",
          "type": "address"
        }
      ],
      "name": "tokenToTokenSwap",
      "outputs": [],
      "stateMutability": "nonpayable",
      "type": "function"
    },
    {
      "inputs": [],
      "name": "totalSupply",
      "outputs": [
        {
          "internalType": "uint256",
          "name": "",
          "type": "uint256"
        }
      ],
      "stateMutability": "view",
      "type": "function"
    },
    {
      "inputs": [
        {
          "internalType": "address",
          "name": "to",
          "type": "address"
        },
        {
          "internalType": "uint256",
          "name": "amount",
          "type": "uint256"
        }
      ],
      "name": "transfer",
      "outputs": [
        {
          "internalType": "bool",
          "name": "",
          "type": "bool"
        }
      ],
      "stateMutability": "nonpayable",
      "type": "function"
    },
    {
      "inputs": [
        {
          "internalType": "address",
          "name": "from",
          "type": "address"
        },
        {
          "internalType": "address",
          "name": "to",
          "type": "address"
        },
        {
          "internalType": "uint256",
          "name": "amount",
          "type": "uint256"
        }
      ],
      "name": "transferFrom",
      "outputs": [
        {
          "internalType": "bool",
          "name": "",
          "type": "bool"
        }
      ],
      "stateMutability": "nonpayable",
      "type": "function"
    }
  ],
  "bytecode": "0x60806040523480156200001157600080fd5b506040516200376c3803806200376c83398181016040528101906200003791906200022e565b6040518060400160405280600781526020017f4c50546f6b656e000000000000000000000000000000000000000000000000008152506040518060400160405280600381526020017f4c505400000000000000000000000000000000000000000000000000000000008152508160039081620000b49190620004da565b508060049081620000c69190620004da565b505050600073ffffffffffffffffffffffffffffffffffffffff168173ffffffffffffffffffffffffffffffffffffffff16036200013b576040517f08c379a0000000000000000000000000000000000000000000000000000000008152600401620001329062000622565b60405180910390fd5b80600560006101000a81548173ffffffffffffffffffffffffffffffffffffffff021916908373ffffffffffffffffffffffffffffffffffffffff16021790555033600660006101000a81548173ffffffffffffffffffffffffffffffffffffffff021916908373ffffffffffffffffffffffffffffffffffffffff1602179055505062000644565b600080fd5b600073ffffffffffffffffffffffffffffffffffffffff82169050919050565b6000620001f682620001c9565b9050919050565b6200020881620001e9565b81146200021457600080fd5b50565b6000815190506200022881620001fd565b92915050565b600060208284031215620002475762000246620001c4565b5b6000620002578482850162000217565b91505092915050565b600081519050919050565b7f4e487b7100000000000000000000000000000000000000000000000000000000600052604160045260246000fd5b7f4e487b7100000000000000000000000000000000000000000000000000000000600052602260045260246000fd5b60006002820490506001821680620002e257607f821691505b602082108103620002f857620002f76200029a565b5b50919050565b60008190508160005260206000209050919050565b60006020601f8301049050919050565b600082821b905092915050565b600060088302620003627fffffffffffffffffffffffffffffffffffffffffffffffffffffffffffffffff8262000323565b6200036e868362000323565b95508019841693508086168417925050509392505050565b6000819050919050565b6000819050919050565b6000620003bb620003b5620003af8462000386565b62000390565b62000386565b9050919050565b6000819050919050565b620003d7836200039a565b620003ef620003e682620003c2565b84845462000330565b825550505050565b600090565b62000406620003f7565b62000413818484620003cc565b505050565b5b818110156200043b576200042f600082620003fc565b60018101905062000419565b5050565b601f8211156200048a576200045481620002fe565b6200045f8462000313565b810160208510156200046f578190505b620004876200047e8562000313565b83018262000418565b50505b505050565b600082821c905092915050565b6000620004af600019846008026200048f565b1980831691505092915050565b6000620004ca83836200049c565b9150826002028217905092915050565b620004e58262000260565b67ffffffffffffffff8111156200050157620005006200026b565b5b6200050d8254620002c9565b6200051a8282856200043f565b600060209050601f8311600181146200055257600084156200053d578287015190505b620005498582620004bc565b865550620005b9565b601f1984166200056286620002fe565b60005b828110156200058c5784890151825560018201915060208501945060208101905062000565565b86831015620005ac5784890151620005a8601f8916826200049c565b8355505b6001600288020188555050505b505050505050565b600082825260208201905092915050565b7f496e76616c696420746f6b656e20616464726573730000000000000000000000600082015250565b60006200060a601583620005c1565b91506200061782620005d2565b602082019050919050565b600060208201905081810360008301526200063d81620005fb565b9050919050565b61311880620006546000396000f3fe6080604052600436106101405760003560e01c806395d89b41116100b6578063c2507ac11161006f578063c2507ac1146104a7578063ce7c2ac2146104e4578063dd62ed3e14610521578063e0486c8a1461055e578063f7a7e32414610587578063f979dcd7146105b057610140565b806395d89b411461036e578063966dae0e146103995780639c8f9f23146103c45780639d76ea5814610402578063a457c2d71461042d578063a9059cbb1461046a57610140565b8063389d9a4011610108578063389d9a4014610240578063395093511461025c57806351c6590a1461029957806359bf5d39146102c957806370a08231146102f45780638fc7a25d1461033157610140565b806306fdde0314610145578063095ea7b31461017057806318160ddd146101ad57806323b872dd146101d8578063313ce56714610215575b600080fd5b34801561015157600080fd5b5061015a6105cc565b60405161016791906120be565b60405180910390f35b34801561017c57600080fd5b5061019760048036038101906101929190612179565b61065e565b6040516101a491906121d4565b60405180910390f35b3480156101b957600080fd5b506101c2610681565b6040516101cf91906121fe565b60405180910390f35b3480156101e457600080fd5b506101ff60048036038101906101fa9190612219565b61068b565b60405161020c91906121d4565b60405180910390f35b34801561022157600080fd5b5061022a6106ba565b6040516102379190612288565b60405180910390f35b61025a600480360381019061025591906122a3565b6106c3565b005b34801561026857600080fd5b50610283600480360381019061027e9190612179565b61071b565b60405161029091906121d4565b60405180910390f35b6102b360048036038101906102ae91906122e3565b610752565b6040516102c091906121fe565b60405180910390f35b3480156102d557600080fd5b506102de610af7565b6040516102eb91906121fe565b60405180910390f35b34801561030057600080fd5b5061031b60048036038101906103169190612310565b610b9a565b60405161032891906121fe565b60405180910390f35b34801561033d57600080fd5b50610358600480360381019061035391906122e3565b610be2565b60405161036591906121fe565b60405180910390f35b34801561037a57600080fd5b50610383610c45565b60405161039091906120be565b60405180910390f35b3480156103a557600080fd5b506103ae610cd7565b6040516103bb919061234c565b60405180910390f35b3480156103d057600080fd5b506103eb60048036038101906103e691906122e3565b610cfd565b6040516103f9929190612367565b60405180910390f35b34801561040e57600080fd5b50610417610fa9565b604051610424919061234c565b60405180910390f35b34801561043957600080fd5b50610454600480360381019061044f9190612179565b610fcf565b60405161046191906121d4565b60405180910390f35b34801561047657600080fd5b50610491600480360381019061048c9190612179565b611046565b60405161049e91906121d4565b60405180910390f35b3480156104b357600080fd5b506104ce60048036038101906104c991906122e3565b611069565b6040516104db91906121fe565b60405180910390f35b3480156104f057600080fd5b5061050b60048036038101906105069190612310565b6110cc565b60405161051891906121fe565b60405180910390f35b34801561052d57600080fd5b5061054860048036038101906105439190612390565b6110e4565b60405161055591906121fe565b60405180910390f35b34801561056a57600080fd5b50610585600480360381019061058091906123d0565b61116b565b005b34801561059357600080fd5b506105ae60048036038101906105a99190612410565b6112fe565b005b6105ca60048036038101906105c591906122e3565b61161a565b005b6060600380546105db90612492565b80601f016020809104026020016040519081016040528092919081815260200182805461060790612492565b80156106545780601f1061062957610100808354040283529160200191610654565b820191906000526020600020905b81548152906001019060200180831161063757829003601f168201915b5050505050905090565b600080610669611671565b9050610676818585611679565b600191505092915050565b6000600254905090565b600080610696611671565b90506106a3858285611842565b6106ae8585856118ce565b60019150509392505050565b60006012905090565b60006106cf8383611b44565b905080343373ffffffffffffffffffffffffffffffffffffffff167fc2d4406fadcd716ab4a11dd67875462a28108de6a8911747c9ca93c8c3c32c2260405160405180910390a4505050565b600080610726611671565b905061074781858561073885896110e4565b61074291906124f2565b611679565b600191505092915050565b600080821015610797576040517f08c379a000000000000000000000000000000000000000000000000000000000815260040161078e90612572565b60405180910390fd5b60006107a1610af7565b03610901576000600560009054906101000a900473ffffffffffffffffffffffffffffffffffffffff1690508073ffffffffffffffffffffffffffffffffffffffff166323b872dd3330866040518463ffffffff1660e01b815260040161080a93929190612592565b6020604051808303816000875af1158015610829573d6000803e3d6000fd5b505050506040513d601f19601f8201168201806040525081019061084d91906125f5565b50600047905061085d3382611c5a565b80600760003373ffffffffffffffffffffffffffffffffffffffff1673ffffffffffffffffffffffffffffffffffffffff16815260200190815260200160002060008282546108ac91906124f2565b92505081905550803373ffffffffffffffffffffffffffffffffffffffff167ffe123a1efb6782dccd20e9790951adcfab3cd0e11b85a6f06d8b9222d299a0a360405160405180910390a38092505050610af2565b6000344761090f9190612622565b9050600061091b610af7565b9050600082823461092c9190612656565b61093691906126c7565b90508085101561097b576040517f08c379a000000000000000000000000000000000000000000000000000000000815260040161097290612744565b60405180910390fd5b6000600560009054906101000a900473ffffffffffffffffffffffffffffffffffffffff1690508073ffffffffffffffffffffffffffffffffffffffff166323b872dd3330856040518463ffffffff1660e01b81526004016109df93929190612592565b6020604051808303816000875af11580156109fe573d6000803e3d6000fd5b505050506040513d601f19601f82011682018060405250810190610a2291906125f5565b50600084610a2e610681565b34610a399190612656565b610a4391906126c7565b9050610a4f3382611c5a565b80600760003373ffffffffffffffffffffffffffffffffffffffff1673ffffffffffffffffffffffffffffffffffffffff1681526020019081526020016000206000828254610a9e91906124f2565b92505081905550803373ffffffffffffffffffffffffffffffffffffffff167ffe123a1efb6782dccd20e9790951adcfab3cd0e11b85a6f06d8b9222d299a0a360405160405180910390a380955050505050505b919050565b6000600560009054906101000a900473ffffffffffffffffffffffffffffffffffffffff1673ffffffffffffffffffffffffffffffffffffffff166370a08231306040518263ffffffff1660e01b8152600401610b54919061234c565b602060405180830381865afa158015610b71573d6000803e3d6000fd5b505050506040513d601f19601f82011682018060405250810190610b959190612779565b905090565b60008060008373ffffffffffffffffffffffffffffffffffffffff1673ffffffffffffffffffffffffffffffffffffffff168152602001908152602001600020549050919050565b6000808211610c26576040517f08c379a0000000000000000000000000000000000000000000000000000000008152600401610c1d90612818565b60405180910390fd5b6000610c30610af7565b9050610c3d838247611db0565b915050919050565b606060048054610c5490612492565b80601f0160208091040260200160405190810160405280929190818152602001828054610c8090612492565b8015610ccd5780601f10610ca257610100808354040283529160200191610ccd565b820191906000526020600020905b815481529060010190602001808311610cb057829003601f168201915b5050505050905090565b600660009054906101000a900473ffffffffffffffffffffffffffffffffffffffff1681565b60008060008311610d43576040517f08c379a0000000000000000000000000000000000000000000000000000000008152600401610d3a90612884565b60405180910390fd5b600760003373ffffffffffffffffffffffffffffffffffffffff1673ffffffffffffffffffffffffffffffffffffffff16815260200190815260200160002054831115610dc5576040517f08c379a0000000000000000000000000000000000000000000000000000000008152600401610dbc90612916565b60405180910390fd5b6000610dcf610681565b8447610ddb9190612656565b610de591906126c7565b90506000610df1610681565b85610dfa610af7565b610e049190612656565b610e0e91906126c7565b9050610e1a3386611e57565b3373ffffffffffffffffffffffffffffffffffffffff166108fc839081150290604051600060405180830381858888f19350505050158015610e60573d6000803e3d6000fd5b50600560009054906101000a900473ffffffffffffffffffffffffffffffffffffffff1673ffffffffffffffffffffffffffffffffffffffff1663a9059cbb33836040518363ffffffff1660e01b8152600401610ebe929190612936565b6020604051808303816000875af1158015610edd573d6000803e3d6000fd5b505050506040513d601f19601f82011682018060405250810190610f0191906125f5565b5084600760003373ffffffffffffffffffffffffffffffffffffffff1673ffffffffffffffffffffffffffffffffffffffff1681526020019081526020016000206000828254610f519190612622565b92505081905550843373ffffffffffffffffffffffffffffffffffffffff167f04c88fcf03215155a0d0a2fdbd430ab9f32013f00499b2899c180dc6077180ca60405160405180910390a38181935093505050915091565b600560009054906101000a900473ffffffffffffffffffffffffffffffffffffffff1681565b600080610fda611671565b90506000610fe882866110e4565b90508381101561102d576040517f08c379a0000000000000000000000000000000000000000000000000000000008152600401611024906129d1565b60405180910390fd5b61103a8286868403611679565b60019250505092915050565b600080611051611671565b905061105e8185856118ce565b600191505092915050565b60008082116110ad576040517f08c379a00000000000000000000000000000000000000000000000000000000081526004016110a490612a3d565b60405180910390fd5b60006110b7610af7565b90506110c4834783611db0565b915050919050565b60076020528060005260406000206000915090505481565b6000600160008473ffffffffffffffffffffffffffffffffffffffff1673ffffffffffffffffffffffffffffffffffffffff16815260200190815260200160002060008373ffffffffffffffffffffffffffffffffffffffff1673ffffffffffffffffffffffffffffffffffffffff16815260200190815260200160002054905092915050565b6000611175610af7565b90506000611184848347611db0565b9050828110156111c9576040517f08c379a00000000000000000000000000000000000000000000000000000000081526004016111c090612aa9565b60405180910390fd5b600560009054906101000a900473ffffffffffffffffffffffffffffffffffffffff1673ffffffffffffffffffffffffffffffffffffffff166323b872dd3330876040518463ffffffff1660e01b815260040161122893929190612592565b6020604051808303816000875af1158015611247573d6000803e3d6000fd5b505050506040513d601f19601f8201168201806040525081019061126b91906125f5565b503373ffffffffffffffffffffffffffffffffffffffff166108fc829081150290604051600060405180830381858888f193505050501580156112b2573d6000803e3d6000fd5b5080843373ffffffffffffffffffffffffffffffffffffffff167f7c27598163cc48e7b019ece0015ee6e3ea794251b47ae935d916f0f1cf5ac16d60405160405180910390a450505050565b6000600660009054906101000a900473ffffffffffffffffffffffffffffffffffffffff1673ffffffffffffffffffffffffffffffffffffffff166306f2bf62836040518263ffffffff1660e01b815260040161135b919061234c565b6020604051808303816000875af115801561137a573d6000803e3d6000fd5b505050506040513d601f19601f8201168201806040525081019061139e9190612ade565b90503073ffffffffffffffffffffffffffffffffffffffff168173ffffffffffffffffffffffffffffffffffffffff16141580156114095750600073ffffffffffffffffffffffffffffffffffffffff168173ffffffffffffffffffffffffffffffffffffffff1614155b611448576040517f08c379a000000000000000000000000000000000000000000000000000000000815260040161143f90612b57565b60405180910390fd5b6000611452610af7565b90506000611461868347611db0565b9050600560009054906101000a900473ffffffffffffffffffffffffffffffffffffffff1673ffffffffffffffffffffffffffffffffffffffff166323b872dd3330896040518463ffffffff1660e01b81526004016114c293929190612592565b6020604051808303816000875af11580156114e1573d6000803e3d6000fd5b505050506040513d601f19601f8201168201806040525081019061150591906125f5565b508273ffffffffffffffffffffffffffffffffffffffff1663389d9a408287336040518463ffffffff1660e01b8152600401611542929190612b77565b6000604051808303818588803b15801561155b57600080fd5b505af115801561156f573d6000803e3d6000fd5b50505050508373ffffffffffffffffffffffffffffffffffffffff16600560009054906101000a900473ffffffffffffffffffffffffffffffffffffffff1673ffffffffffffffffffffffffffffffffffffffff163373ffffffffffffffffffffffffffffffffffffffff167f8c3f862bb806496e0cda40f6788796a25a7bd00267304043332e6177b17c48de8960405161160a91906121fe565b60405180910390a4505050505050565b60006116268233611b44565b905080343373ffffffffffffffffffffffffffffffffffffffff167fc2d4406fadcd716ab4a11dd67875462a28108de6a8911747c9ca93c8c3c32c2260405160405180910390a45050565b600033905090565b600073ffffffffffffffffffffffffffffffffffffffff168373ffffffffffffffffffffffffffffffffffffffff16036116e8576040517f08c379a00000000000000000000000000000000000000000000000000000000081526004016116df90612c12565b60405180910390fd5b600073ffffffffffffffffffffffffffffffffffffffff168273ffffffffffffffffffffffffffffffffffffffff1603611757576040517f08c379a000000000000000000000000000000000000000000000000000000000815260040161174e90612ca4565b60405180910390fd5b80600160008573ffffffffffffffffffffffffffffffffffffffff1673ffffffffffffffffffffffffffffffffffffffff16815260200190815260200160002060008473ffffffffffffffffffffffffffffffffffffffff1673ffffffffffffffffffffffffffffffffffffffff168152602001908152602001600020819055508173ffffffffffffffffffffffffffffffffffffffff168373ffffffffffffffffffffffffffffffffffffffff167f8c5be1e5ebec7d5bd14f71427d1e84f3dd0314c0f7b2291e5b200ac8c7c3b9258360405161183591906121fe565b60405180910390a3505050565b600061184e84846110e4565b90507fffffffffffffffffffffffffffffffffffffffffffffffffffffffffffffffff81146118c857818110156118ba576040517f08c379a00000000000000000000000000000000000000000000000000000000081526004016118b190612d10565b60405180910390fd5b6118c78484848403611679565b5b50505050565b600073ffffffffffffffffffffffffffffffffffffffff168373ffffffffffffffffffffffffffffffffffffffff160361193d576040517f08c379a000000000000000000000000000000000000000000000000000000000815260040161193490612da2565b60405180910390fd5b600073ffffffffffffffffffffffffffffffffffffffff168273ffffffffffffffffffffffffffffffffffffffff16036119ac576040517f08c379a00000000000000000000000000000000000000000000000000000000081526004016119a390612e34565b60405180910390fd5b6119b7838383612024565b60008060008573ffffffffffffffffffffffffffffffffffffffff1673ffffffffffffffffffffffffffffffffffffffff16815260200190815260200160002054905081811015611a3d576040517f08c379a0000000000000000000000000000000000000000000000000000000008152600401611a3490612ec6565b60405180910390fd5b8181036000808673ffffffffffffffffffffffffffffffffffffffff1673ffffffffffffffffffffffffffffffffffffffff16815260200190815260200160002081905550816000808573ffffffffffffffffffffffffffffffffffffffff1673ffffffffffffffffffffffffffffffffffffffff168152602001908152602001600020600082825401925050819055508273ffffffffffffffffffffffffffffffffffffffff168473ffffffffffffffffffffffffffffffffffffffff167fddf252ad1be2c89b69c2b068fc378daa952ba7f163c4a11628f55a4df523b3ef84604051611b2b91906121fe565b60405180910390a3611b3e848484612029565b50505050565b600080611b4f610af7565b90506000611b69343447611b639190612622565b84611db0565b905084811015611bae576040517f08c379a0000000000000000000000000000000000000000000000000000000008152600401611ba590612aa9565b60405180910390fd5b600560009054906101000a900473ffffffffffffffffffffffffffffffffffffffff1673ffffffffffffffffffffffffffffffffffffffff1663a9059cbb85836040518363ffffffff1660e01b8152600401611c0b929190612936565b6020604051808303816000875af1158015611c2a573d6000803e3d6000fd5b505050506040513d601f19601f82011682018060405250810190611c4e91906125f5565b50809250505092915050565b600073ffffffffffffffffffffffffffffffffffffffff168273ffffffffffffffffffffffffffffffffffffffff1603611cc9576040517f08c379a0000000000000000000000000000000000000000000000000000000008152600401611cc090612f32565b60405180910390fd5b611cd560008383612024565b8060026000828254611ce791906124f2565b92505081905550806000808473ffffffffffffffffffffffffffffffffffffffff1673ffffffffffffffffffffffffffffffffffffffff168152602001908152602001600020600082825401925050819055508173ffffffffffffffffffffffffffffffffffffffff16600073ffffffffffffffffffffffffffffffffffffffff167fddf252ad1be2c89b69c2b068fc378daa952ba7f163c4a11628f55a4df523b3ef83604051611d9891906121fe565b60405180910390a3611dac60008383612029565b5050565b60008083118015611dc15750600082115b611e00576040517f08c379a0000000000000000000000000000000000000000000000000000000008152600401611df790612f9e565b60405180910390fd5b60006126f785611e109190612656565b905060008382611e209190612656565b905060008261271087611e339190612656565b611e3d91906124f2565b90508082611e4b91906126c7565b93505050509392505050565b600073ffffffffffffffffffffffffffffffffffffffff168273ffffffffffffffffffffffffffffffffffffffff1603611ec6576040517f08c379a0000000000000000000000000000000000000000000000000000000008152600401611ebd90613030565b60405180910390fd5b611ed282600083612024565b60008060008473ffffffffffffffffffffffffffffffffffffffff1673ffffffffffffffffffffffffffffffffffffffff16815260200190815260200160002054905081811015611f58576040517f08c379a0000000000000000000000000000000000000000000000000000000008152600401611f4f906130c2565b60405180910390fd5b8181036000808573ffffffffffffffffffffffffffffffffffffffff1673ffffffffffffffffffffffffffffffffffffffff1681526020019081526020016000208190555081600260008282540392505081905550600073ffffffffffffffffffffffffffffffffffffffff168373ffffffffffffffffffffffffffffffffffffffff167fddf252ad1be2c89b69c2b068fc378daa952ba7f163c4a11628f55a4df523b3ef8460405161200b91906121fe565b60405180910390a361201f83600084612029565b505050565b505050565b505050565b600081519050919050565b600082825260208201905092915050565b60005b8381101561206857808201518184015260208101905061204d565b60008484015250505050565b6000601f19601f8301169050919050565b60006120908261202e565b61209a8185612039565b93506120aa81856020860161204a565b6120b381612074565b840191505092915050565b600060208201905081810360008301526120d88184612085565b905092915050565b600080fd5b600073ffffffffffffffffffffffffffffffffffffffff82169050919050565b6000612110826120e5565b9050919050565b61212081612105565b811461212b57600080fd5b50565b60008135905061213d81612117565b92915050565b6000819050919050565b61215681612143565b811461216157600080fd5b50565b6000813590506121738161214d565b92915050565b600080604083850312156121905761218f6120e0565b5b600061219e8582860161212e565b92505060206121af85828601612164565b9150509250929050565b60008115159050919050565b6121ce816121b9565b82525050565b60006020820190506121e960008301846121c5565b92915050565b6121f881612143565b82525050565b600060208201905061221360008301846121ef565b92915050565b600080600060608486031215612232576122316120e0565b5b60006122408682870161212e565b93505060206122518682870161212e565b925050604061226286828701612164565b9150509250925092565b600060ff82169050919050565b6122828161226c565b82525050565b600060208201905061229d6000830184612279565b92915050565b600080604083850312156122ba576122b96120e0565b5b60006122c885828601612164565b92505060206122d98582860161212e565b9150509250929050565b6000602082840312156122f9576122f86120e0565b5b600061230784828501612164565b91505092915050565b600060208284031215612326576123256120e0565b5b60006123348482850161212e565b91505092915050565b61234681612105565b82525050565b6000602082019050612361600083018461233d565b92915050565b600060408201905061237c60008301856121ef565b61238960208301846121ef565b9392505050565b600080604083850312156123a7576123a66120e0565b5b60006123b58582860161212e565b92505060206123c68582860161212e565b9150509250929050565b600080604083850312156123e7576123e66120e0565b5b60006123f585828601612164565b925050602061240685828601612164565b9150509250929050565b600080600060608486031215612429576124286120e0565b5b600061243786828701612164565b935050602061244886828701612164565b92505060406124598682870161212e565b9150509250925092565b7f4e487b7100000000000000000000000000000000000000000000000000000000600052602260045260246000fd5b600060028204905060018216806124aa57607f821691505b6020821081036124bd576124bc612463565b5b50919050565b7f4e487b7100000000000000000000000000000000000000000000000000000000600052601160045260246000fd5b60006124fd82612143565b915061250883612143565b92508282019050808211156125205761251f6124c3565b5b92915050565b7f496e76616c696420696e70757420746f6b656e20616d6f756e74000000000000600082015250565b600061255c601a83612039565b915061256782612526565b602082019050919050565b6000602082019050818103600083015261258b8161254f565b9050919050565b60006060820190506125a7600083018661233d565b6125b4602083018561233d565b6125c160408301846121ef565b949350505050565b6125d2816121b9565b81146125dd57600080fd5b50565b6000815190506125ef816125c9565b92915050565b60006020828403121561260b5761260a6120e0565b5b6000612619848285016125e0565b91505092915050565b600061262d82612143565b915061263883612143565b92508282039050818111156126505761264f6124c3565b5b92915050565b600061266182612143565b915061266c83612143565b925082820261267a81612143565b91508282048414831517612691576126906124c3565b5b5092915050565b7f4e487b7100000000000000000000000000000000000000000000000000000000600052601260045260246000fd5b60006126d282612143565b91506126dd83612143565b9250826126ed576126ec612698565b5b828204905092915050565b7f496e73756666696369656e7420746f6b656e20616d6f756e7400000000000000600082015250565b600061272e601983612039565b9150612739826126f8565b602082019050919050565b6000602082019050818103600083015261275d81612721565b9050919050565b6000815190506127738161214d565b92915050565b60006020828403121561278f5761278e6120e0565b5b600061279d84828501612764565b91505092915050565b7f746f6b656e536f6c642073686f756c642062652067726561746572207468616e60008201527f2030000000000000000000000000000000000000000000000000000000000000602082015250565b6000612802602283612039565b915061280d826127a6565b604082019050919050565b60006020820190508181036000830152612831816127f5565b9050919050565b7f496e76616c696420616d6f756e74000000000000000000000000000000000000600082015250565b600061286e600e83612039565b915061287982612838565b602082019050919050565b6000602082019050818103600083015261289d81612861565b9050919050565b7f417474656d7074696e6720746f2072656d6f7665206d6f726520616d6f756e7460008201527f207468616e20656e7469746c6564000000000000000000000000000000000000602082015250565b6000612900602e83612039565b915061290b826128a4565b604082019050919050565b6000602082019050818103600083015261292f816128f3565b9050919050565b600060408201905061294b600083018561233d565b61295860208301846121ef565b9392505050565b7f45524332303a2064656372656173656420616c6c6f77616e63652062656c6f7760008201527f207a65726f000000000000000000000000000000000000000000000000000000602082015250565b60006129bb602583612039565b91506129c68261295f565b604082019050919050565b600060208201905081810360008301526129ea816129ae565b9050919050565b7f657468536f6c642073686f756c642062652067726561746572207468616e2030600082015250565b6000612a27602083612039565b9150612a32826129f1565b602082019050919050565b60006020820190508181036000830152612a5681612a1a565b9050919050565b7f496e73756666696369656e74206f757470757420616d6f756e74000000000000600082015250565b6000612a93601a83612039565b9150612a9e82612a5d565b602082019050919050565b60006020820190508181036000830152612ac281612a86565b9050919050565b600081519050612ad881612117565b92915050565b600060208284031215612af457612af36120e0565b5b6000612b0284828501612ac9565b91505092915050565b7f496e76616c69642065786368616e676520616464726573730000000000000000600082015250565b6000612b41601883612039565b9150612b4c82612b0b565b602082019050919050565b60006020820190508181036000830152612b7081612b34565b9050919050565b6000604082019050612b8c60008301856121ef565b612b99602083018461233d565b9392505050565b7f45524332303a20617070726f76652066726f6d20746865207a65726f2061646460008201527f7265737300000000000000000000000000000000000000000000000000000000602082015250565b6000612bfc602483612039565b9150612c0782612ba0565b604082019050919050565b60006020820190508181036000830152612c2b81612bef565b9050919050565b7f45524332303a20617070726f766520746f20746865207a65726f20616464726560008201527f7373000000000000000000000000000000000000000000000000000000000000602082015250565b6000612c8e602283612039565b9150612c9982612c32565b604082019050919050565b60006020820190508181036000830152612cbd81612c81565b9050919050565b7f45524332303a20696e73756666696369656e7420616c6c6f77616e6365000000600082015250565b6000612cfa601d83612039565b9150612d0582612cc4565b602082019050919050565b60006020820190508181036000830152612d2981612ced565b9050919050565b7f45524332303a207472616e736665722066726f6d20746865207a65726f20616460008201527f6472657373000000000000000000000000000000000000000000000000000000602082015250565b6000612d8c602583612039565b9150612d9782612d30565b604082019050919050565b60006020820190508181036000830152612dbb81612d7f565b9050919050565b7f45524332303a207472616e7366657220746f20746865207a65726f206164647260008201527f6573730000000000000000000000000000000000000000000000000000000000602082015250565b6000612e1e602383612039565b9150612e2982612dc2565b604082019050919050565b60006020820190508181036000830152612e4d81612e11565b9050919050565b7f45524332303a207472616e7366657220616d6f756e742065786365656473206260008201527f616c616e63650000000000000000000000000000000000000000000000000000602082015250565b6000612eb0602683612039565b9150612ebb82612e54565b604082019050919050565b60006020820190508181036000830152612edf81612ea3565b9050919050565b7f45524332303a206d696e7420746f20746865207a65726f206164647265737300600082015250565b6000612f1c601f83612039565b9150612f2782612ee6565b602082019050919050565b60006020820190508181036000830152612f4b81612f0f565b9050919050565b7f496e76616c696420726573657276657300000000000000000000000000000000600082015250565b6000612f88601083612039565b9150612f9382612f52565b602082019050919050565b60006020820190508181036000830152612fb781612f7b565b9050919050565b7f45524332303a206275726e2066726f6d20746865207a65726f2061646472657360008201527f7300000000000000000000000000000000000000000000000000000000000000602082015250565b600061301a602183612039565b915061302582612fbe565b604082019050919050565b600060208201905081810360008301526130498161300d565b9050919050565b7f45524332303a206275726e20616d6f756e7420657863656564732062616c616e60008201527f6365000000000000000000000000000000000000000000000000000000000000602082015250565b60006130ac602283612039565b91506130b782613050565b604082019050919050565b600060208201905081810360008301526130db8161309f565b905091905056fea2646970667358221220906d7e170c802dfe0abbcd4b709d8cafaa4ae510788130892afd65c9b423ce1964736f6c63430008110033",
  "linkReferences": {},
  "deployedLinkReferences": {}
}